:020000040800F2
:10000000FCFF0020A92500005D2400005D24000005
:100010005D2400005D2400005D2400005D240000DC
:100020005D2400005D2400005D2400005D240000CC
:100030005D2400005D2400005D2400005D240000BC
:100040005D2400005D2400005D2400005D240000AC
:100050005D2400005D2400005D2400005D2400009C
:100060005D2400005D2400005D2400005D2400008C
:100070005D2400005D2400005D2400005D2400007C
:100080005D2400005D2400005D2400005D2400006C
:100090005D2400005D2400005D2400005D2400005C
:1000A0005D2400005D2400005D2400005D2400004C
:1000B0005D2400005D2400005D2400005D2400003C
:1000C0005D2400005D2400005D2400005D2400002C
:1000D0005D2400005D2400005D2400005D2400001C
:1000E0005D2400005D2400005D2400005D2400000C
:1000F0005D2400005D2400005D2400005D240000FC
:100100005D2400005D2400005D2400005D240000EB
:100110005D2400005D2400005D2400005D240000DB
:100120005D2400005D2400005D2400005D240000CB
:100130005D2400005D2400005D2400005D240000BB
:100140005D2400005D2400005D2400005D240000AB
:1001500081B000F218010A68C2F3400181F0010188
:10016000C9B2C8B201B0704781B000F214010A6888
:1001700000F218010968090442EA0101084601B0C9
:100180007047FFFF81B0CDF800E00B46FFF7ECFFB2
:1001900000EA03029A4240F2000200D10122D0B2EA
:1001A000DDF800E001B0704701480068704700BF0B
:1001B0000C01002081B0CDF800E04FF00002194999
:1001C000884207D118490B6818490A6818490A601B
:1001D0001C460BE01749884207D117490B6817499D
:1001E0000A6813490A601C4600E0144614490C6072
:1001F00003461846FFF7ACFF70B91149096851B1C1
:100200002CB905200A4C2468A047002005E0611E97
:1002100008460446FFE7ECE70120DDF800E001B006
:10022000704700BF005400409000002014010020DF
:100230001001002000580040940000201801002008
:100240009800002081B00268C2F3401101B9FAE7BA
:10025000011D096888B201B07047FFFF83B0CDF877
:1002600000E000F0FF031A09104603F00F021346E6
:1002700014E0194A02921FE0184A02921CE0184A40
:10028000029219E0174A029216E0174A029213E00E
:10029000164A029210E0164A02920DE00028E8D0B9
:1002A0000128E9D00228EAD00328EBD00428ECD0BA
:1002B0000528EDD00628EED0012212B29A40ADF802
:1002C000042002980A46BDF8041000F09BFEDDF8F9
:1002D00000E003B0704700BF00080140000C01407F
:1002E000001001400014014000180140001C0140B2
:1002F0000020014081B00168C1F3801001B0704757
:1003000081B00168C1F3401001B0704782B0CDF8F0
:1003100000E0034619460191FFF746FF40F2E8313D
:1003200000FB01F201990A601F490978C1F303112A
:10033000C8B21E4909180878C0B21A1D1968C14010
:10034000116019490988C1F3022188B217490918B7
:100350000878C0B203F20802191D0968C140116093
:1003600011490988C1F3C22188B2104909180878D7
:10037000C0B203F20C02191D0968C14011600A499C
:100380000988C1F3813188B2094909180978C8B2CE
:1003900003F2100203F20C010968B1FBF0F11160E5
:1003A000DDF800E002B0704704100240DC280000D5
:1003B0004416000083B0CDF800E003464FF0000083
:1003C00026498B4206D126490C6826490A682649E7
:1003D0000A600BE025498B4207D125490868254969
:1003E0000A6821490A60044600E0044622490C607C
:1003F000019402931846FFF7DDFE029B019C10B9A1
:100400004FF6FF7025E00122196862F30821196098
:1004100003F214010A68C2F3402111B14FF6FF70D4
:1004200017E025461C4615492046FFF7ABFE78B974
:100430001149096859B135B906200B4C2468A04709
:100440004FF6FF7005E0691E08460546FFE7EAE73C
:100450000020DDF800E003B0704700BF005400400A
:1004600090000020140100201001002000580040DE
:1004700094000020180100209800002001000300D3
:1004800082B0CDF800E0CFB201469846029B4FF013
:1004900000064FF00005C44CA14207D1C34CD4F86C
:1004A0000090C34C2568C34C25600BE0C24CA142B0
:1004B00007D1C24C2068C24C2568BE4C25608146DD
:1004C00000E0A946BF4CC4F80090F4E101F2100529
:1004D0007C00A4B244F00104A4B22C60019616463C
:1004E0004F46019A01F214042568C5F3400464B92B
:1004F000B44C246844B127B90320AE4C2468A0470B
:10050000E2E1781E0746FFE7ECE700250C6865F39B
:100510008A240C6001F21404206800BF01F2180460
:100520002468240440EA04042046012B05D1012557
:100530000C6865F349240C6004E001250C6865F340
:1005400008240C609F4C25689146984637460E4615
:100550009D493046FFF716FE68B99A4C24684CB1A5
:1005600025B90320934C2468A047ADE16C1E2046BA
:100570000546FFE7ECE707EB090506F210042468DF
:100580002C70B8F1010F13D18E4C216830460568EC
:10059000C5F340245CB98B4C24683CB121B90320DD
:1005A000844C2468A0478FE1491EFFE7EFE712E083
:1005B000844C216830460568C5F300245CB9814C41
:1005C00024683CB121B903207A4C2468A0477BE120
:1005D000491EFFE7EFE777E101250C6865F38A2400
:1005E0000C6001250C6865F3CB240C6001F210054A
:1005F0007C00A4B244F00104A4B22C604F4601F286
:1006000014042568C5F3400464B96E4C246844B1F1
:1006100027B90320674C2468A04755E1781E074698
:10062000FFE7ECE701F21404206800BF01F21804B0
:1006300024682404204300250C6865F38A240C6098
:10064000604C276801F214042568C5F3800464B97E
:100650005C4C246844B127B90320564C2468A04759
:1006600032E1781E0746FFE7ECE7012B05D10125B3
:100670000C6865F349240C6004E001250C6865F3FF
:1006800008240C60951901F2100424682C70741C65
:10069000151901F2100424682C70012B14D1494C57
:1006A00022680D68C5F3402464B9464C246844B1FF
:1006B00022B903203F4C2468A04705E1501E0246A2
:1006C000FFE7EEE7084613E03E4C22680D68C5F3ED
:1006D000002464B93B4C246844B122B90320354C52
:1006E0002468A047F0E0501E0246FFE7EEE7084608
:1006F0000025046865F3CB240460E5E001250C685F
:1007000065F38A240C6001F210057C00A4B244F069
:100710000104A4B22C604646C846894617461D46C9
:100720002A494846FFF72EFD78B9264C24685CB16B
:10073000B8F1000F04D103201E4C2468A047C3E089
:10074000A8F101008046FFE7EAE70021A8464A46F3
:10075000B1463B46A9F10304A14222D2194C2568B7
:100760008A4617461E4618493846FFF70BFD60B902
:10077000144C246844B125B903200E4C2468A047CA
:10078000A2E0681E0546FFE7EDE706EB0A0507F263
:10079000100424682C700AF10104214633463A46BD
:1007A000D8E7084C00F014B8005400409000002036
:1007B0001401002010010020005800409400002087
:1007C00018010020980000204000030002000300F0
:1007D000276801930B4616464246019906F2140417
:1007E0002568C5F3800464B9394C246844B127B93D
:1007F0000320384C2468A04766E0781E0746FFE7D0
:10080000ECE70025346865F38A243460CD1806F2DD
:10081000100424682C70581C2D4C2368174602467F
:1008200006F214042568C5F3800464B9284C2468D2
:1008300044B123B90320274C2468A04744E0581E44
:100840000346FFE7ECE7012F07D10125346865F384
:10085000492434601046324621E00125346865F3AE
:10086000082434601A4CD4F8008017460D461A4903
:100870003046FFF787FC78B9154C24685CB1B8F1B5
:10088000000F04D10320134C2468A0471CE0A8F1FA
:1008900001008046FFE7EAE72946324638460D1850
:1008A00002F2100424682C70441C0D1902F210048A
:1008B00024682C7008E0B8F1010F3FF407AEB8F1DE
:1008C000020F3FF489AE19E7DDF800E002B070478F
:1008D00098000020100100200100030081B0194998
:1008E00000EA0101084600220EE0042022E0082070
:1008F00020E010201EE020201CE040201AE0802094
:1009000018E040F2001015E00F498842EDD00F4981
:100910008842ECD00E498842EBD00E498842EAD09A
:100920000D498842E9D00D498842E8D00C498842F7
:10093000E7D010460B49096841EA000209490A60FC
:1009400001B0704700FCFFFF00080140000C0140AF
:10095000001001400014014000180140001C01403B
:10096000002001401810024082B0CDF800E0029E45
:100970004FF00005564CA04206D1564C2768564C05
:100980002568564C25600AE0554CA04206D1554CCE
:100990002768554C2568514C256000E02F46534C84
:1009A000276000F210054C00A4B22C60B94607463F
:1009B000904635461E464E493846FFF7E3FB88B958
:1009C0004A4C24686CB1B9F1000F06D10420434CA5
:1009D0002468A0474FF6FF7076E0A9F10100814638
:1009E000FFE7E8E70020019729463746019E7C1E75
:1009F000A04226D206F2100508EB000424782C60F1
:100A00003A4CD4F8009082460D463A493046FFF7FA
:100A1000B9FB88B9354C24686CB1B9F1000F06D127
:100A200004202E4C2468A0474FF6FF704CE0A9F13B
:100A300001008146FFE7E8E70AF101042046294664
:100A4000D5E706F2100508EB000424782C60274C4B
:100A500027680D4628493046FFF794FB70B9234CB0
:100A6000246854B137B904201C4C2468A0474FF6C1
:100A7000FF7029E0781E0746FFE7EBE7012D05D15F
:100A80000125346865F3492434601CE0012534688D
:100A900065F308243460154C276835461749284605
:100AA000FFF770FB78B9114C24685CB137B90420AA
:100AB0000A4C2468A0474FF6FF7005E07C1E2046D4
:100AC0000746FFE7EAE70020DDF800E002B07047E4
:100AD000005400409000002014010020100100206C
:100AE00000580040940000201801002098000020C9
:100AF0008200070080000700840007000100030057
:100B000081B0CDF800E00348FFF7FAFBDDF800E024
:100B100001B070470044004081B0CDF800E00348C8
:100B2000FFF790FBDDF800E001B0704700440040A3
:100B300081B0CDF800E00348FFF73CFCDDF800E0B1
:100B400001B070470058004081B0CDF800E0034884
:100B5000FFF730FCDDF800E001B0704700540040C2
:100B600081B0CDF800E00348FFF76CFBDDF800E052
:100B700001B070470038014081B0CDF800E0034873
:100B8000FFF7B8FBDDF800E001B070470038014026
:100B900081B0CDF800E00348FFF7B2FBDDF800E0DC
:100BA00001B070470038014081B0CDF800E008B4D2
:100BB00013460A46C1B20448FFF7D6FE01B0DDF87D
:100BC00000E001B0704700BF0058004081B0CDF890
:100BD00000E008B413460A46C1B20448FFF750FCCF
:100BE00001B0DDF800E001B0704700BF00540040E4
:100BF00081B0CDF800E00348FFF77CFBDDF800E0B2
:100C000001B070470050004081B0CDF800E008B45A
:100C100013460A46C1B20448FFF7A6FE01B0DDF84C
:100C200000E001B0704700BF0054004081B0CDF833
:100C300000E081B2034800F0C3F9DDF800E001B044
:100C4000704700BF0038004081B0CDF800E081B2AD
:100C5000034800F0B5F9DDF800E001B0704700BFCF
:100C6000003C004081B0CDF800E008B413460A46CD
:100C7000C1B20448FFF704FC01B0DDF800E001B0A8
:100C8000704700BF0058004081B0CDF800E081B24D
:100C9000034800F095F9DDF800E001B0704700BFAF
:100CA0000030014081B0CDF800E00348FFF728FB99
:100CB000DDF800E001B070470050004081B0CDF891
:100CC00000E00348FFF71CFBDDF800E001B07047CF
:100CD0000048004081B0CDF800E00348FFF70AFB70
:100CE000DDF800E001B070470048004081B0CDF869
:100CF00000E00348FFF7FEFADDF800E001B07047BE
:100D00000044004081B0CDF800E00348FFF79AFAB4
:100D1000DDF800E001B070470048004081B0CDF838
:100D200000E00348FFF7E6FADDF800E001B07047A5
:100D3000004C004081B0CDF800E00348FFF782FA94
:100D4000DDF800E001B070470050004081B0CDF800
:100D500000E00348FFF776FADDF800E001B07047E5
:100D6000004C004081B0CDF800E00348FFF7C8FA1E
:100D7000DDF800E001B07047004C004089B0CDF8CC
:100D800000E0834698B28C46BDF824100A9E04AC5D
:100D9000ADF80410ADF808002046FFF7B7FABDF82B
:100DA0000800BDF80410644CA34512D101256DB2B2
:100DB000624C2560624D634C2560634D634C256039
:100DC000634D644C2560644D644C2560079C03941E
:100DD00056E0634CA34512D101256DB2614C2560EC
:100DE000614D584C2560614D584C2560604D594C03
:100DF0002560604D594C2560069C039440E05E4C94
:100E0000A34512D101256DB25C4C25605C4D4D4C63
:100E100025605C4D4D4C25605B4D4E4C25605B4D17
:100E20004E4C2560069C03942AE0594CA34512D1F0
:100E300001256DB2574C2560574D424C2560574DEA
:100E4000424C2560564D434C2560564D434C256021
:100E5000069C039414E0544CA34511D101256DB2B6
:100E6000524C2560524D374C2560524D374C256011
:100E7000514D384C2560514D384C2560069C0394EB
:100E8000ADF80410ADF80800304600F0B5F9BDF833
:100E90000800BDF804100BF1100500242C600BF1C4
:100EA00010052C680C432C600BF10C0500242C6001
:100EB00018B140F4806080B2FFE70BF10C052C689C
:100EC00004432C600BF10C060125346865F34D34A6
:100ED00034600BF10C060125346865F3C3043460FB
:100EE0000BF10C060125346865F3820434600BF1C4
:100EF000140500242C60039D192465434FEA8C04DB
:100F0000B5FBF4F76424B7FBF4F426013509642437
:100F10006C433C1B240104F232056424B5FBF4F459
:100F200004F00F0446EA04040BF10805A4B22C6097
:100F3000DDF800E009B07047003801403803424254
:100F40004914000024010020610B0000280100204A
:100F5000910B00002C010020790B000030010020D3
:100F600000440040C403424201140000190B000079
:100F7000010B0000ED0C000000480040C803424295
:100F8000BD130000050D0000BD0C0000D50C0000D5
:100F9000004C0040CC034242191500004D0D0000EA
:100FA000650D00001D0D000000500040D0034242BE
:100FB00059150000350D0000A50C0000F10B0000D4
:100FC00081B000F20C02116000F208021368C3F352
:100FD000000202B9F8E700F20C02126890B201B008
:100FE0007047FFFF81B0ADF800100146BDF800006A
:100FF0000B68C3F3C01202B9FAE70A1D106001B012
:101000007047FFFF81B0CDF800E08CB21546774BFA
:1010100000EA03031E461846FFF760FCB4F1FF0F19
:101020000CD1734B9D4203D14FF033333360D9E081
:10103000422D03D14FF044333360D3E04FF6FF73BA
:101040009C4214D16A4B9D4207D14FF03333336039
:10105000341D4FF033332360C4E0422D07D14FF0ED
:1010600044333360341D4FF044332360BAE0002131
:10107000002005F001030BB100211DE005F0020383
:1010800033B105F4C0730BB1082100E0042113E073
:1010900005F0040333B105F020030BB1042100E097
:1010A000002109E005F0080333B105F020030BB17E
:1010B0000C2100E00821FFE74E4B05EA03030BB1CA
:1010C000032009E005F400730BB1022004E005F4ED
:1010D00080630BB10120FFE705F00C030BB1014366
:1010E000FFE704F0FF039BB2002B3BD037680020E2
:1010F0001FFA84F832462E4608282CD24FF00103FE
:1011000003FA00F408EA0403A34222D185004FF059
:101110000F03AB40DB4307EA030401FA05F344EA9B
:1011200003031D4606F48173B3F5817F05D102F2F6
:1011300014044FF001038340236006F08203822BE6
:1011400005D102F210044FF00103834023602F46C3
:10115000FFE7401CD0E717601FFA88F00F463146C2
:10116000164602E00F462946A0B2B0F1FF0F39D96A
:10117000331DD3F800800022082A30D202F208047E
:101180004FF0010303FA04F400EA0403A34224D15C
:1011900095004FF00F03AB40DB4308EA030807FA62
:1011A00005F348EA030801F48173B3F5817F07D1A1
:1011B00006F2140502F208044FF00103A3402B606D
:1011C00001F08203822B07D106F2100502F2080417
:1011D0004FF00103A3402B60FFE7521CCCE7331D07
:1011E000C3F80080DDF800E001B0704700FCFFFFAD
:1011F000140008000008080081B0CDF800E00122CA
:1012000052B23E490A6000F268010B686FF000615B
:1012100003EA0102144603F00061C90E0B4602F016
:101220000041B1F1004F02D135490A6801E035496A
:101230000A6804F47021090C0E464FF6FF7104EAA7
:1012400001010D4604F44011B1F5401F0DD16FF0BE
:10125000706102EA01010E462A490A686FF0706166
:101260000A4028490A60324616E004F48011B1F5BC
:10127000801F09D14FF00301B140C94302EA0101C7
:1012800041F070610A4607E0610D090105FA01F1BC
:10129000C9430A4042F070622BB1610D090105FAA1
:1012A00001F10A43FFE704F00041B1F1004F02D120
:1012B00013490A6001E013490A6040F2000A8146BE
:1012C0004FEA8A0109EB01010968B1F1FF3F10D033
:1012D00009F134014FEA8A03C91809680A4609EB83
:1012E0000301096808461146FEF7B8FF0AF1010A32
:1012F000E6E7DDF800E001B0704700BF00034242BE
:101300001C0001400400014081B000230360CB00B9
:101310009BB242EA030304689BB244EA03030360FE
:10132000051D13141C462B6864F382032B6000F226
:101330001C0500242B6864F3CB232B600124036875
:1013400064F38613036001B07047FFFF83B0CDF8EC
:1013500000E08AB2014690B283B2421E90B26BB1F5
:101360000A78D4B2ADF804000291A0B2054C24680A
:10137000A0470299BDF80400491CEDE7DDF800E044
:1013800003B070474801002081B0CDF800E081B281
:101390000348FFF715FEDDF800E001B0704700BF1D
:1013A0000030014081B0CDF800E04FF0420289B238
:1013B000FFF728FEDDF800E001B0704781B0CDF8FE
:1013C00000E081B20348FFF70DFEDDF800E001B058
:1013D000704700BF0048004081B0CDF800E0019D9B
:1013E0002C4610B408B493B28AB201460348FFF702
:1013F000C5FC02B0DDF800E001B0704700380140E4
:1014000081B0CDF800E081B20348FFF7EBFDDDF8D5
:1014100000E001B0704700BF0044004082B0CDF84A
:1014200000E040F20004ADF80440064C2468A047F8
:10143000BDF9041041EA000000B2DDF800E002B09E
:10144000704700BF3801002081B0CDF800E081B2C4
:101450000348FFF7C7FDDDF800E001B0704700BFAB
:101460000038014081B0CDF800E081B20348FFF7B9
:10147000A7FDDDF800E001B0704700BF0038004074
:1014800081B0CDF800E081B20348FFF799FDDDF8A7
:1014900000E001B0704700BF003C004081B0CDF8D3
:1014A00000E0019D2C4610B408B493B28AB2014604
:1014B0000348FFF763FC02B0DDF800E001B07047BD
:1014C0000044004083B0CDF800E08DF804000291A4
:1014D0000B4C0C4B1C600C4C0C4B1C60012464B27C
:1014E0000B4B1C601046FFF787FE029A9DF8041014
:1014F0000848FFF709FFDDF800E003B0704700BFC0
:10150000490C00001C010020811400002001002073
:10151000BC034242003C004081B0CDF800E081B203
:101520000348FFF75FFDDDF800E001B0704700BF42
:10153000004C004082B0CDF800E040F20004ADF86D
:101540000440044C2468A047BDF90400DDF800E025
:1015500002B070474C01002081B0CDF800E081B2AC
:101560000348FFF73FFDDDF800E001B0704700BF22
:101570000050004084B0CDF800E0ADF80C200190A0
:101580000291BDF80C40BDF80C305B1EADF80C307C
:101590007CB1019B1B78DCB2A0B2084C2468A04748
:1015A000029B1870029B5B1C0293019B5B1C0193C6
:1015B000E7E7DDF800E004B0704700BF3401002029
:1015C00082B0CDF800E040F20004ADF80440054CD4
:1015D0002468A047BDF90440044320B2DDF800E0D0
:1015E00002B070474401002081B0CDF800E0044A09
:1015F00089B2FFF707FDDDF800E001B0704700BFDA
:101600001400080081B0CDF800E0019D2C4610B414
:1016100008B493B28AB201460348FFF7AFFB02B0A9
:10162000DDF800E001B07047004800400148006864
:10163000704700BF3481224201480068704700BFF4
:10164000080122420204060844F67F77C0F212071E
:101650007F1EFDD100BF00BF00BF00BF00BF7047AD
:1016600081B0CDF800E0A9E0012905D140F22001C8
:101670006548FFF797FE04E040F220016248FFF75B
:10168000B3FFBBE0012905D140F208015F48FFF735
:1016900089FE04E040F208015C48FFF7A5FFADE0D9
:1016A000012905D144F200015948FFF77BFE04E00F
:1016B00044F200015648FFF797FF9FE0012905D14A
:1016C00040F200415148FFF76DFE04E040F2004156
:1016D0004E48FFF789FF91E0012905D140F600014E
:1016E0004A48FFF75FFE04E040F600014748FFF775
:1016F0007BFF83E0012905D141F200014348FFF758
:1017000051FE04E041F200014048FFF76DFF75E033
:10171000012905D141F200013D48FFF743FE04E0F5
:1017200041F200013A48FFF75FFF67E0012905D168
:1017300040F600013648FFF735FE04E040F60001B0
:101740003348FFF751FF59E0012905D140F240012C
:101750002F48FFF727FE04E040F240012C48FFF736
:1017600043FF4BE0012905D140F220012848FFF753
:1017700019FE04E040F220012548FFF735FF3DE067
:10178000012905D140F240012248FFF70BFE04E099
:1017900040F240011F48FFF727FF2FE0012905D144
:1017A00040F280011B48FFF7FDFD04E040F280019C
:1017B0001848FFF719FF21E0012020E000283FF43E
:1017C00053AF01283FF45EAF02283FF469AF03280E
:1017D0003FF474AF04283FF47FAF05283FF48AAF8D
:1017E00006283FF495AF0728A0D00828ACD00928D8
:1017F000B8D00A28C4D00B28D0D0DDE70020DDF80F
:1018000000E001B0704700BF000801400010014037
:1018100000140140000C014001480068704700BFFF
:101820001001214281B0CDF800E0011D0A68016875
:10183000C8B21146034AFFF745FE0020DDF800E07C
:1018400001B070473C27000001480068704700BFA6
:101850002801224201480068704700BF30812242BF
:1018600001480068704700BF1881224201480068A3
:10187000704700BF3081224201480068704700BFB6
:101880002C01224201480068704700BF300122420B
:1018900001480068704700BF148122429DB0CDF816
:1018A00000E01B918DF870200DF1040B0BF1680A1C
:1018B000DFF8A4C000F0B2FC322801D9012047E0D3
:1018C0009DF87030332B01D9022041E0234B1B7867
:1018D000B3B101AB1870FFF7A1FD01AC204B1B7831
:1018E00001222146D8B20023FFF76AFE1C4B1B7869
:1018F0009DF870201B99D8B20123FFF71BFE26E04C
:1019000001AC40F0400323700020164C2468A0472F
:101910009DF870305D1C0EAC01ABAAB22146184692
:10192000FFF728FE01200F4C2468A04700209DF8F7
:10193000703098420BD21B9B1D18441C24B20EAB76
:101940001B191B782B70431CD9B2C8B2EFE70020DB
:10195000DDF800E01DB07047142800009E00002054
:101960009F0000203C01002081B0CDF800E0A9E0FC
:10197000012905D140F210016548FFF713FD04E08D
:1019800040F210016248FFF72FFEBBE0012905D1AC
:1019900040F204015F48FFF705FD04E040F2040156
:1019A0005C48FFF721FEADE0012905D142F20001BC
:1019B0005948FFF7F7FC04E042F200015648FFF7F0
:1019C00013FE9FE0012905D140F200415148FFF785
:1019D000E9FC04E040F200414E48FFF705FE91E0CB
:1019E000012905D140F600014A48FFF7DBFC04E07D
:1019F00040F600014748FFF7F7FD83E0012905D1D4
:101A000041F200014348FFF7CDFC04E041F2000140
:101A10004048FFF7E9FD75E0012905D140F20101D9
:101A20003B48FFF7BFFC04E040F201013848FFF7F4
:101A3000DBFD67E0012905D140F200413648FFF7A0
:101A4000B1FC04E040F200413348FFF7CDFD59E01E
:101A5000012905D140F200212F48FFF7A3FC04E043
:101A600040F200212C48FFF7BFFD4BE0012905D1D2
:101A700040F200112848FFF795FC04E040F2001105
:101A80002548FFF7B1FD3DE0012905D140F24001B5
:101A90002248FFF787FC04E040F240011F48FFF7AF
:101AA000A3FD2FE0012905D140F280011B48FFF77B
:101AB00079FC04E040F280011848FFF795FD21E031
:101AC000012020E000283FF453AF01283FF45EAF2F
:101AD00002283FF469AF03283FF474AF04283FF4B1
:101AE0007FAF05283FF48AAF06283FF495AF07285B
:101AF000A0D00828ACD00928B8D00A28C4D00B2818
:101B0000D0D0DDE70020DDF800E001B0704700BF75
:101B1000000801400010014000140140000C014089
:101B200042F6DF67C0F200077F1EFDD100BF00BF95
:101B300000BF00BF00BF704701480068704700BF8A
:101B40001881214201480068704700BF1C81214272
:101B500001480068704700BF280122420148006820
:101B6000704700BF2881224201480068704700BFCB
:101B70002481224201480068704700BF00012142D1
:101B800001480068704700BF2C01224201480068EC
:101B9000704700BF3001224201480068704700BF13
:101BA0002081224201480068704700BF0C01224298
:101BB00001480068704700BF388122420148006830
:101BC000704700BF1401214201480068704700BF00
:101BD0001881214201480068704700BF1C812142E2
:101BE00001490860704700BFB8812242014908607E
:101BF000704700BFA801224201490860704700BF3A
:101C00008C01224201490860704700BF9C8121423B
:101C100001490860704700BF9401214201490860F2
:101C2000704700BFB081224201490860704700BF81
:101C30009881224201490860704700BFB08122426A
:101C400001490860704700BFAC01224201490860A9
:101C5000704700BFB001224201490860704700BFD1
:101C6000AC01224201490860704700BFB001224226
:101C700001490860704700BFA8012242014908607D
:101C8000704700BF8801224201490860704700BFC9
:101C9000B481224201490860704700BFA0812242FE
:101CA00001490860704700BF9881214201490860DE
:101CB000704700BFA481224201490860704700BFFD
:101CC0008001214201490860704700BFA88122427B
:101CD00001490860704700BF9481224281B0CDF86D
:101CE00000E0094902B440F2000340F2000240F271
:101CF0000001FFF7D3FB01B0044A05490A60002048
:101D0000DDF800E001B07047D026000001140000AB
:101D10000801002081B0CDF800E0011D0A680168CB
:101D2000C8B21146034AFFF7CDFB0020DDF800E002
:101D300001B070473C27000001490860704700BFB0
:101D40009001214281B0CDF800E0094902B440F28F
:101D5000000340F2000240F20001FFF79FFB01B0D8
:101D6000044A05490A600020DDF800E001B0704730
:101D7000D0260000011400000801002081B0CDF839
:101D800000E0094902B440F2000340F2000240F2D0
:101D90000001FFF721FB01B0044A05490A60002059
:101DA000DDF800E001B0704764260000491400002F
:101DB0000801002081B0CDF800E00178CCB2A0B2DB
:101DC000034C2468A0470020DDF800E001B0704714
:101DD00008010020026803490A60011D0A680249DF
:101DE0000A60704748010020340100200149086062
:101DF000704700BF9C81214201490860704700BFC5
:101E00009881214200F230011C310A6803490A60BE
:101E100000F208010A6802490A6070474001002088
:101E20003C01002082B0CDF800E0322805D803281C
:101E300002D9082800D200E005E03C2803D03D2864
:101E400001D0012029E001AA1070521C11703C2819
:101E500002D03D2800D003E001AA531C96221A703C
:101E6000104A12785AB1FFF7D9FA01AB0E4A12782C
:101E700019460123D0B20222FFF7A2FB0CE000209A
:101E80000A4C2468A04701AA02211046FFF75EFA17
:101E90000120064C2468A0470020DDF800E002B0D5
:101EA000704700BF9E0000209F0000203C010020E2
:101EB00081B0CDF800E0094902B440F2000340F2DD
:101EC000000240F20001FFF79DFB01B0044A054902
:101ED0000A600020DDF800E001B07047A82700008C
:101EE000BD1300000801002081B0CDF800E08B4652
:101EF00009E05846FFF796FC0AE05846FFF70AFF4C
:101F000006E0012004E00028F3D00128F5D0F8E72E
:101F1000DDF800E001B0704781B00A4601460020BC
:101F20000D4611460A2805D20B1820221A70401CB3
:101F300080B2F7E70B1800221A70401E80B20C180E
:101F40000A23B5FBF3F203FB1252303222700A224D
:101F5000B5FBF2F2154602B902E0401E80B2EEE790
:101F600001B0704784B0CDF800E00290039101AA5F
:101F7000114604220420FFF791FC01ACA21C127848
:101F800002F01F02D2B2D0B20302621C127843EAFE
:101F90000202130222781343029A1360E21C1278A1
:101FA00002F03F03039A1370DDF800E004B07047BD
:101FB00081B0CDF800E011E00846FFF779FF16E0A8
:101FC0000846FFF78BFE12E00846FFF7D7FE0EE04B
:101FD0000846FFF7B7FE0AE0012008E00028EBD032
:101FE0000128EDD02028EFD03028F1D0F4E7DDF83B
:101FF00000E001B07047FFFF81B0CDF800E05FFA6C
:1020000081F95FFA82FA0FE05FFA8AF15FFA89F0EC
:10201000FFF7AAFC0DE05FFA8AF15FFA89F0FFF79B
:102020001FFB06E0012004E00028EDD00128F2D0DB
:10203000F8E7DDF800E001B07047FFFF82B0CDF8AF
:1020400000E0114C2468A047A0B1FFF769FDFFF73D
:1020500067FDFFF765FDFFF763FD01A8012201465B
:102060000320FFF71BFC9DF8040000F00F008DF823
:10207000040002E000208DF804009DF80400DDF863
:1020800000E002B0704700BF4001002081B0CDF8F1
:1020900000E003460846FFF79DFE1846FFF7B2FE34
:1020A0000023054A13700120044C2468A047DDF882
:1020B00000E001B0704700BF9E0000203C010020FE
:1020C00081B0CDF800E020B996213C20FFF7AAFEB0
:1020D00003E096213D20FFF7A5FEFFF7B5FAFFF7D5
:1020E000B3FAFFF7B1FADDF800E001B07047FFFF87
:1020F00081B00A4681B200208DB21146052805D272
:102100000B1820221A70401CC0B2F7E70B180022EF
:102110001A70401EC0B20C180A23B5FBF3F203FB81
:10212000125292B2303222700A22B5FBF2F292B20F
:1021300095B202B902E0401EC0B2ECE701B07047B0
:1021400083B0CDF800E0024610460D228DF808203D
:102150000A228DF809201FE0FFF72CFE23E0027809
:102160002AB10190FFF726FE0198401CF7E71AE01C
:1021700002782AB10190FFF71DFE0198401CF7E795
:1021800002AA1046FFF716FE0DF109021046FFF7EE
:1021900011FE08E0062007E00029DDD00129DED08D
:1021A0000229E5D0F6E70020DDF800E003B0704733
:1021B00081B01548006840F00101134801601349DF
:1021C0001348016010480168124801400E48016040
:1021D0000D4801686FF4802001400B4801600C48F5
:1021E00001686FF4FE00014009480160064801687B
:1021F0006FF0A0500140044801604FF00001064814
:10220000016001B0704700BF001002400000FFF005
:1022100004100240FFFFF6FE2C10024081B01CF8B3
:10222000019B0BF8019BBBEB0A0FF8D101B0704783
:1022300081B0CDF800E026492648FFF727FF49F690
:10224000FF67C0F2240700BF00BF7F1EFDD100BFA3
:1022500000BF00BF0020FFF733FF0120FFF730FF72
:102260001C2040F00000C1B20020FFF7DBFD21215F
:102270000120FFF7D7FDC02040F08000C0B240F041
:102280000200C1B20220FFF7CDFD402040F0000067
:10229000C1B20320FFF7C6FD00210820FFF7C2FDF1
:1022A0000D480221FFF74CFF0C480221FFF748FFC1
:1022B0004EF67F67C0F236077F1EFDD100BF00BF1C
:1022C00000BF00BF00BFDDF800E001B0704700BFF5
:1022D000EC2800007C2800001000002027000020CF
:1022E00081B0CDF800E0FFF7A9FE2449087001286D
:1022F00008D123480221FFF723FF22480221FFF7DC
:102300001FFF36E01D480078042808D11E4802212E
:10231000FFF716FF1D480221FFF712FF29E01748BB
:102320000078082825D11A491A48FFF71BFE1A48D9
:102330000121FFF705FF174800681849FFF7ECFD7A
:1023400002211648FFF7FCFE15480121FFF7F8FEB1
:102350000F4800781149FFF7CBFE01210F48FFF726
:10236000EFFE10480221FFF7EBFE0F480221FFF7B6
:10237000E7FEDDF800E001B0704700BF9C000020E0
:10238000280000203D0000203E00002051000020D9
:102390009D000020A000002052000020A40000208A
:1023A000740000208B0000208F000020FFFFFFFF43
:1023B00081B0CDF800E0012207210020FFF71CFECC
:1023C000002202210020FFF717FE0E4801460020E0
:1023D000FFF78AFD44F600312020FFF7E9FD0A48A7
:1023E0000221FFF7ADFE44F67F77C0F2120700BF6F
:1023F00000BF7F1EFDD100BF00BF00BFDDF800E0C1
:1024000001B07047F42800000000002081B04FF0B8
:1024100000094FF0000CBDEB0A0F04DCBDEB0B0F05
:1024200001DBD446EA464BF8049BBBEB0A0FFAD11A
:10243000BCEB0A0F05DDE246D9F800B00BF1040B46
:10244000F1E701B07047FFFF81B002490248016027
:1024500001B07047401901000C01002081B0FEE777
:1024600001B0704781B0CDF800E0464A464B474C7A
:1024700047494BF68030814206D94648006840F013
:1024800002014448016011E045F6C050814206D97E
:102490004048006840F001013E48016006E03D48C8
:1024A00001686FF0070001403A480160FFF780FEC5
:1024B0003948036039480460394802EA0001394864
:1024C000016002F0010040B119463648006800F092
:1024D0000200002800D1F8E700E0194602F480303D
:1024E00040B10B462F48006800F40030002800D1AE
:1024F000F8E700E00B4602F0805068B12948006818
:1025000040F08051274801602648006800F00050E4
:10251000002800D1F8E7FFE702F0806078B1214899
:10252000006840F080611F48016011461A461D484E
:10253000006800F00060002800D1F8E701E01146D3
:102540001A4601F0807070B11648006840F0807142
:102550001448016011461348006800F0007000B98B
:10256000F9E70A46FFE70C48006800F00C0190000C
:1025700000F00C00814200D0F5E7DDF800E001B08A
:10258000704700BF8100010502841D004406010060
:102590004019010000200240041002402C100240AB
:1025A000FFFF0F0000100240FFF75CFF00F0E6F9AC
:1025B000FFF74AFF00F0A2F9FFF7FAFEFFF738FE37
:1025C000FFF78EFEFCE7FEE7496E697469616C698E
:1025D0007A696E672E2E2E005468756E64657220BF
:1025E000697320696E697469616C697A6564000059
:1025F0004E6F697365206C6576656C20746F6F2013
:102600006869676800004469737475726265722056
:1026100064657465637465640000456E657267790E
:10262000206F66207468652073696E676C65206C26
:10263000696768746E696E67203A20004469737434
:10264000616E636520657374696D6174696F6E2076
:102650003A2000206B6D0000000000000000000028
:1026600000000000090000000A000000FFFFFFFF5B
:10267000000000000000000000000000000000005A
:10268000000000000000000000000000000000004A
:102690000000000000000000180800001800000002
:1026A000000000000000000000000000000000002A
:1026B000000000000000000000000000000000001A
:1026C0000000000000000000000000000400000006
:1026D0003500000036000000FFFFFFFF0000000093
:1026E00000000000000000000000000000000000EA
:1026F00000000000000000000000000000000000DA
:102700000000000018080000180000000000000091
:1027100000000000000000000000000000000000B9
:1027200000000000000000000000000000000000A9
:102730000000000000000000080000082A0000005F
:102740002B0000002C000000FFFFFFFF0000000036
:102750000000000000000000000000000000000079
:102760000000000000000000000000000000000069
:1027700018080000180800001808000000000000F9
:102780000000000000000000000000000000000049
:102790000000000000000000000000000000000039
:1027A000000000000011200838000000390000007F
:1027B000FFFFFFFF0000000000000000000000001D
:1027C0000000000000000000000000000000000009
:1027D00000000000000000000000000018080000D9
:1027E00018000000000000000000000000000000D1
:1027F00000000000000000000000000000000000D9
:1028000000000000000000000000000000000000C8
:10281000300014080000000000000000000000006C
:1028200000000000000000000000000000000000A8
:102830000000000000000000000000000000000098
:102840000000000000000000000000000000000088
:102850000000000000000000000000000000000078
:102860000000000000000000000000000000000068
:10287000000000000000000000000000391D000002
:102880007D1C0000891C0000711C0000591C000008
:10289000651C0000B91C0000C51C0000AD1C000038
:1028A000951C0000A11C0000051C00001918000068
:1028B000391600002D16000049180000811B000089
:1028C0008D1B0000751B00005D1B0000691B0000D4
:1028D000991B0000C91B0000D51B00000000000070
:1028E0000102030401020304060708098114000021
:1028F000490C0000070000000603000000B5DFF8E7
:1029000014B0DFF814A0DFF814C0FFF787FC00BD97
:10291000704700BF000000209C000020C825000078
:10292000FFFFFFFFFFFFFFFFFFFFFFFFFFFFFFFFB7
:10293000FFFFFFFFFFFFFFFFFFFFFFFFFFFFFFFFA7
:10294000FFFFFFFFFFFFFFFFFFFFFFFFFFFFFFFF97
:10295000FFFFFFFFFFFFFFFFFFFFFFFFFFFFFFFF87
:10296000FFFFFFFFFFFFFFFFFFFFFFFFFFFFFFFF77
:10297000FFFFFFFFFFFFFFFFFFFFFFFF00B5DFF8D7
:1029800010B0DFF810A0FFF741FD00BD704700BF99
:102990000000002050010020FFFFFFFFFFFFFFFFAE
:00000001FF
