:100000007610040000000000000000000000000066
:1000100000000000000000000000000000000000E0
:1000200000000000000000000000000000000000D0
:1000300000000000000000000000000000000000C0
:1000400000000000000000000000000000000000B0
:1020EC004F922000F0FF270020A0B7001000200026
:1020FC0034A0B700400020004420B7009610020026
:10210C0000000000A010020000000000D4FF070037
:10211C0099FF070056FF0700FEFF3700FFFF37004F
:10206C008A1F78008B1F78008C1F78001CC0B3006F
:10207C007BC0B3001420EF0061FE07001820EF00B6
:10208C002BC0B3001420EF005DFE070020132800C6
:10209C00800578001420EF00E9FE07000BB0240047
:1020AC000C0020001AC0B30022FF07002BC0B300A5
:1020BC007A85200036FF070038002000578D20005D
:1020CC000E20ED00FEFF3A001020ED00FCFF3A0060
:1020DC004F067800CF0578004F0578000000060009
:101A0C008A1F78008B1F78000A0037000B4578007E
:101A1C008C4578007AFE07000B0037000B457800E8
:101A2C008C457800D6FE07000700370010C0B300C5
:101A3C00050037006054E100F4FF32006154E1000E
:101A4C00F6FF3200F9FF3700CF0578004F0578001C
:041A5C000000060080
:10140C00F0FF2F002AA3B700F0FF2F002CA3B7008A
:10141C00F0FF2F006CA3B7003E0037001600AE00A3
:10142C00C682A9001600AF00C682A8005200370081
:10143C001600AE00D2A2A9001600AF00D2A2A800DE
:10144C004D0037001600AE00D302A9001600AF0005
:10145C00D302A800480037001600AE00E4C2A90071
:10146C001600AF00E4C2A800430037001600AE001F
:10147C00E4E2A9001600AF00E4E2A8003E00370049
:10148C001600AE00E502A9001600AF00E502A800A8
:10149C00390037001600AE00D202A9001600AF00CA
:1014AC00D202A800340037001600AE00C182A90099
:1014BC001600AF00C182A8002F0037001600AE0046
:1014CC00DE42A9001600AF00DE42A8002A00370059
:1014DC001600AE00DE62A9001600AF00DE62A800A6
:1014EC00250037001600AE00E442A9001600AF003C
:1014FC00E442A800200037001600AE00E462A90008
:10150C001600AF00E462A8001B00370010C0B30047
:10151C001A0037006054E100C0FF32006154E10052
:10152C00C3FF32006254E100C6FF32006354E10095
:10153C00C9FF32006454E100CCFF32006554E10075
:10154C00CFFF32006654E100D2FF32006754E10055
:10155C00D5FF32006854E100D8FF32006954E10035
:10156C00DBFF32006A54E100DEFF32006B54E10015
:10157C00E1FF3200E5FF370000C0B30000000600B9
:10158C003E0037001600AE00C6A2A9001600AF0040
:10159C00C6A2A800520037001600AE00D322A90044
:1015AC001600AF00D322A8004D0037001600AE0085
:1015BC00D3C2A9001600AF00D3C2A8004800370060
:1015CC001600AE00E4C2A9001600AF00E4C2A800E9
:1015DC00430037001600AE00E4E2A9001600AF008D
:1015EC00E4E2A8003E0037001600AE00E502A900B8
:1015FC001600AF00E502A800390037001600AE0057
:10160C00D222A9001600AF00D222A8003400370065
:10161C001600AE00C1A2A9001600AF00C1A2A8001E
:10162C002F0037001600AE00DE42A9001600AF00F6
:10163C00DE42A8002A0037001600AE00DE62A900C8
:10164C001600AF00DE62A800250037001600AE00C1
:10165C00E442A9001600AF00E442A80020003700C5
:10166C001600AE00E462A9001600AF00E462A80008
:10167C001B00370010C0B3001A0037006054E100A3
:10168C00C0FF32006154E100C3FF32006254E1003C
:10169C00C6FF32006354E100C9FF32006454E1001C
:1016AC00CCFF32006554E100CFFF32006654E100FC
:1016BC00D2FF32006754E100D5FF32006854E100DC
:1016CC00D8FF32006954E100DBFF32006A54E100BC
:1016DC00DEFF32006B54E100E1FF3200E5FF370022
:0816EC0000C0B300000006007D
:101C4C008A1F7800080037000B057800DCFD0700C0
:101C5C000A0037000B057800E1FD0700070037008C
:101C6C0010C0B300050037006054E100F6FF3200ED
:101C7C006154E100F7FF3200F9FF37004F0578009F
:041C8C00000006004E
:1013CC008A1F78008B1F78001A05BE00FDFD0700F0
:1013DC0000C0B300CF0578004F0578000000060070
:100BD0000400FA00FDFE0700ACFF0700421F2000E2
:100BE0000300200046FF07000001BE00829FBE00F8
:100BF0008A9FBE000200BE0002682900830920000F
:100C00000002EB0047FF07004F05BE004F01BE008A
:100C100000079800110798000200BE000A01BE00FC
:100C20000002EB003FFF07000001BE00600047002C
:100C300030015100A081590061005100E08059004D
:100C40002010880007E2A80089FF07000822EF00B3
:100C500091FF070081FF07000080FA0000000600F6
:1007CC000000FA000020200080448800002E200049
:1007DC0090448800E02B2000B0448800E0432000C7
:1007EC00C0448800A0372000D0448800A0302000EE
:0C07FC00A04488000080FA000000060005
:0C0A8C0000F42100010020000000060022
:100A700038002000578D20000E20ED00FEFF3A00C8
:0C0A80001020ED00FCFF3A000000060012
:100A98000000FA0058FE07000000E20001003A00DA
:0C0AA800FCFF37000080FA000000060090
:100400000000FA000260EF000602AF000260EC009C
:100410000060EF000642AF000060EC008180FB004E
:100420000080FB00808070000060EF000662AF007B
:100430000060EC000080FB00808070000060EF0036
:100440000682AF000060EC000080FB00808070003E
:100450000060EF000622AF000060EC000080FB00AF
:10046000808070000060EF0009C2AF000060EC0007
:100470000080FB00008070000000E2000060EF00E0
:1004800001003A000060EC000080FB000080FA00F0
:040490000000060062
:100A5C00000000000000000000000000000000008A
:040A6C000000060080
:100900000000FA00020AB800500088000200B80097
:1009100081004200032AB800810042000080FA00F2
:0409200000000600CD
:100924000000FA0002000700E004040000000000D8
:100934000800E20002003A00100007000000060070
:10094400839F68000200E20002003D006000100086
:10095400E08018000600E20002003D006001110082
:10096400E0811900050007004F00E00002003B0091
:1009740060001000E0801800000006006022B8004B
:10098400060220000000D0008180D2000482D20040
:100994008582D2000000A8000202520083825A001D
:1009A40003003B000202420083824A000000A100CF
:1009B4000603E900F3FF3A00000006000080FA0095
:0409C4000000060029
:1013EC008A1F78008B1F78001A05BE00F5FD0700D8
:1013FC0000C0B300CF0578004F0578000000060050
:101D40008A1F78008B1F78008C1F78000A003700EC
:101D50000B0578008C05780066FE07000B00370045
:101D60000B0578008C0578007EFE07000700370021
:101D700010C0B300050037006054E100F4FF3200EA
:101D80006154E100F6FF3200F9FF37004F0678009A
:0C1D9000CF0578004F0578000000060029
:1016F4005AFD0700A07E2000E04488000020EF008F
:0417040000000600DB
:100C60000800FA00A07E2000C04588004040200017
:100C700090458800202D2000A0458800E036200007
:100C8000B04588002022EF000000280022A2B70013
:100C90002062A9007DFF07000001BE00803E200009
:100CA0000100200016FF07000001BE0042FE070001
:100CB0004100DE00640040008000780060004700D2
:100CC0000A88BE008100E900030035001018D0003A
:100CD0001090D200FBFF3700829FBE008A9FBE00AB
:100CE0000200BE000E0190009E0190000002EB0089
:100CF000F6FD07004F05BE004F01BE00200798001B
:100D0000310798008A9FBE000200BE000E019000CD
:100D10009E0190000002EB0002FF07004F05BE009D
:100D20008001780001027800600047005001D10086
:100D3000C080D300640047003008E1002090E1004B
:100D40000700310061804100E0004A008002780025
:100D50000103780005017800860178000200370061
:100D600003017800840178000280710033003A00AA
:100D700046FF07000001BE00803E20000100200069
:100D8000DFFE07000001BE000BFE07004100DE0091
:100D900000A0EC0080007800600047000A88BE00D8
:100DA0008100E900030035001018D0001090D20037
:100DB000FBFF3700829FBE000200BE000E019000C4
:100DC0009E0190000002EB00C0FD07004F01BE0035
:100DD00020079800310798000200BE000E01900025
:100DE0009E0190000002EB00CEFE0700800178001B
:100DF00001027800600047005001D100C080D3009C
:100E0000640047003008E1002090E1000700310055
:100E100061804100E0004A00800278000103780010
:100E20000501780086017800020037000301780090
:100E3000840178002062A8000000370061005100A2
:100E4000E0805900401188002222A90021E2A80078
:100E50002342A80006FF070005FF07000080FA00F4
:040E60000000060088
:0805B8002000200000000600F5
:1004CC000000FA0002000700BA020400000000005D
:1004DC000800E20002003A001000070000000600CD
:1004EC00811F78000200E20002003D006000100055
:1004FC00E08018000600E20002003D0060011100DF
:10050C00E0811900050007004F00E00002003B00ED
:10051C0060001000E08018000000060002000700D8
:10052C000480BE00000006006022B8000602200015
:10053C000000D0008180D2000482D2008582D200DB
:10054C000000A8000202520083825A0003003B0004
:10055C000202420083824A000000A1000603E90067
:10056C00F3FF3A00000006000080FA0000000600CD
:101764003EFD0700A07E2000E04488000020EF003A
:04177400000006006B
:101D9C000200FA008A1F78008A007800D000200028
:101DAC0000479800A000200010479800250037003D
:101DBC00010578006DFE070029003700010078004E
:101DCC001004E00008003200801F78008A9FBE00DB
:101DDC000005780065FE07004F05BE004F00780037
:101DEC000020EC00F6FF37001D00370001007800E2
:101DFC001004E00008003200801F78008A9FBE00AB
:101E0C000005780059FE07004F05BE004F00780012
:101E1C000020EC00F6FF3700600047008A9FBE00F0
:101E2C000005780051FE07006100470000057800AE
:101E3C004EFE07004F05BE000900370060C0B3001E
:101E4C0008003700605CE100D9FF3200615CE10002
:101E5C00DAFF3200625CE100E4FF3200F7FF37008A
:101E6C000020EF004F0578000080FA00000006000B
:101778008A1F78001A85FB00E04480000000010001
:0C1788000020EF004F0578000000060074
:10100C000000FA00C3FD07000080FA000000060093
:100720000000FA0040C2A9004022AE0001003700DC
:10073000FDFF37004A1288004002AF000100370079
:10074000FDFF37004882BF000080FA00000006006D
:10101C000000FA008CFD07000080FA0000000600BA
:100654000000FA0060C2A9006022AE000100370069
:10066400FDFF37004A1388006002AF000100370025
:10067400FDFF37006882BF000080FA00000006001A
:100FD4000000FA002302AF0001003700FDFF3700D4
:0C0FE4002A1188000080FA0000000600BE
:100FF0000000FA003302AF0001003700FDFF3700A8
:0C100000AA1188000080FA000000060021
:101F84008A1F78008B1F78008C1F78003CC0B30038
:101F94008B1228008A0F280058FF070058002000E1
:101FA400B71A21000E20ED00FEFF3A001020ED00CC
:101FB400FCFF3A000AC0B30082FE07001AC0B30057
:101FC40080FE0700C1012000000020000080700096
:101FD400804578000AC0B300F7FD07001BC2B300B8
:101FE4001AC0B300F4FD0700010C20000008200013
:101FF4000080700062007000804578002AC0B30041
:10200400EDFD0700010420000000200000807000A6
:10201400804578003AC0B300E7FD07000BC0B30069
:102024008AC0B300E4FD07002BC0B3001A8020006F
:1020340059FF07002BC0B3000A80200056FF070099
:102044007800200017A821000E20ED00FEFF3A00C2
:102054001020ED00FCFF3A004F067800CF05780011
:082064004F05780000000600A2
:101D00008A1F7800008A20000C4878008A1F78001B
:101D10000B0578007CFE07004F05780089FE070060
:101D2000118A200010C0B300804878001AC0B300A8
:101D300060458000000001004F05780000000600AB
:101708001A00780080458800E20045001100780042
:1017180050458800E4004500110078002045880005
:10172800E60045001100780030458800E8004500D3
:0C17380011007800404588000000060009
:10174400780045006E004000100078007045880065
:101754006400450010007800604588000000060021
:101340001400AE00CA82A9001400AF00CA82A8002F
:041350000000060093
:101354001400AE00D6A2A9001400AF00D6A2A800C3
:04136400000006007F
:101318001400AE00D702A9001400AF00D702A8003D
:0413280000000600BB
:10132C001400AE00E8C2A9001400AF00E8C2A80087
:04133C0000000600A7
:101368001400AE00E8E2A9001400AF00E8E2A8000B
:04137800000006006B
:1013A4001400AE00E902A9001400AF00E902A8008D
:0413B400000006002F
:1013B8001400AE00D602A9001400AF00D602A8009F
:0413C800000006001B
:10137C001400AE00C582A9001400AF00C582A800FD
:04138C000000060057
:101390001400AE00E242A9001400AF00E242A8002F
:0413A0000000060043
:101794001400AE00E262A9001400AF00E262A800E7
:0417A400000006003B
:1019B4001400AE00E842A9001400AF00E842A800F9
:0419C4000000060019
:101950001400AE00E862A9001400AF00E862A8001D
:04196000000006007D
:101978001400AE00CAA2A9001400AF00CAA2A800B1
:041988000000060055
:101964001400AE00D722A9001400AF00D722A800AB
:041974000000060069
:1019A0001400AE00D7C2A9001400AF00D7C2A8002F
:0419B000000006002D
:10198C001400AE00E8C2A9001400AF00E8C2A80021
:04199C000000060041
:10193C001400AE00E8E2A9001400AF00E8E2A80031
:04194C000000060091
:1018C4001400AE00E902A9001400AF00E902A80068
:0418D400000006000A
:1018D8001400AE00D622A9001400AF00D622A8003A
:0418E80000000600F6
:1017A8001400AE00C5A2A9001400AF00C5A2A8008D
:0417B8000000060027
:101914001400AE00E242A9001400AF00E242A800A5
:0419240000000600B9
:101928001400AE00E262A9001400AF00E262A80051
:0419380000000600A5
:1018EC001400AE00E842A9001400AF00E842A800C2
:0418FC0000000600E2
:101900001400AE00E862A9001400AF00E862A8006D
:0419100000000600CD
:1019C8008A1F78008B1F78006054E10004003A00F9
:1019D8006BC9B300CAC3B30076FF07000300370022
:1019E8006BC9B300DAC3B30072FF07001EFC07001F
:1019F8001DFC07001CFC0700CF0578004F05780088
:041A080000000600D4
:1017BC000200FA008A1F78008B1F78008C1F7800BB
:1017CC008D1F780020C3B3000054E10006003E00DA
:1017DC006354E100030036006854E100010031005D
:1017EC000100370008003700C0C3B3000054E1000B
:1017FC0005003200D0C3B3000054E10002003200F7
:10180C0010C0B30026003700600047000A4878007B
:10181C000020EC000B487800C0C3B3000054E1007A
:10182C0004003200D0C3B3000054E10001003200C8
:10183C000400370060004700E100400060C9B300BD
:10184C0080487800108A20001004E0000900320063
:10185C00D4FD0700E0004700008A20001A20EF00AA
:10186C002C00200081057800104578009EFC0700B4
:10187C000A0037001420EF006045800000000100D2
:10188C00600047002B0020000005780086FC070054
:10189C001AC0B30060458000000001000020EF007A
:1018AC00CF0678004F067800CF0578004F057800FA
:0818BC000080FA0000000600A4
:100FB0000200FA0000002000000798008145800030
:100FC00001000100E0004700110070000080FA00FD
:040FD0000000060017
:1005C0000000FA000420EF00007122000010E1009A
:1005D00006003E008AFF07000000E2000100320032
:1005E000020037000420EC00F7FF370010712200F2
:1005F0000010E10002003900F00F20000300370076
:100600000602A800AAFF07000020EF000080FA0001
:0406100000000600E0
:1004B0000000FA008620AF0001003700FDFF370082
:0C04C0008620A9000080FA000000060061
:1009C8000000FA000260EF001602AF000260EC00BF
:1009D8000060EF001642AF000060EC008180FB0071
:1009E8000080FB00808070000060EF001662AF009E
:1009F8000060EC000080FB00808070000060EF0069
:100A08001682AF000060EC000080FB008080700060
:100A18000060EF001622AF000060EC000080FB00D1
:100A2800808070000060EF0019C2AF000060EC0029
:100A38000080FB00008070000000E2000060EF0012
:100A480001003A000060EC000080FB000080FA0022
:040A58000000060094
:100750000000FA000420EF00007122000010E10008
:1007600006003E00980007000000E2000100320091
:10077000020037000420EC00F7FF37001071220060
:100780000010E10002003900F00F200003003700E4
:100790001602A8003FFF07000020EF000080FA00CB
:0407A000000006004F
:100494000000FA008A40AF0001003700FDFF37007A
:0C04A4008A40A9000080FA000000060059
:100808000000FA0000000000000000002682BF007F
:080818000080FA000000060058
:1005A4000000FA002282BF00610060000080FA00AF
:0405B400000006003D
:1006DC000000FA000020EF002302AF000020EC0025
:0806EC000080FA000000060086
:100698000000FA0000000000000000003682BF00E1
:0806A8000080FA0000000600CA
:100684000000FA003282BF00610060000080FA00BE
:04069400000006005C
:10063C000000FA000020EF003302AF000020EC00B5
:08064C000080FA000000060026
:100AF4000400FA008A1F7800000020001007980004
:100B04000B0798000A80FB004100DD008C9FBE00AB
:100B14000045780031458000010001004F06BE0009
:100B240062014700E2004700920870008C007800E0
:100B340061005600000678000200E2000F00320057
:100B44000E0090008C9FBE008A9FBE001045780066
:100B540031458000010001004F05BE004F06BE0074
:100B640062014700E2004700920870008E00900086
:100B74006000470061884000ECFF3700606CE100D2
:100B840006003A00504580008C9FBE008A9FBE003C
:100B9400000001004F05BE004F06BE00616CE1007D
:100BA40006003A00804580008C9FBE008A9FBE00EC
:100BB400000001004F05BE004F06BE001E0090005D
:0C0BC4004F0578000080FA0000000600D9
:1006F4000000FA000A80FB0002A2B70008E2AE0084
:1007040002003700100020000200370067FF0700D6
:0C0714000020EF000080FA00000006004A
:1006B0000000FA000A80FB0012A2B70018E2AE00A8
:1006C00002003700100020000200370071FF070011
:0C06D0000020EF000080FA00000006008F
:10057C000000FA000682BF007F0060000000E2006D
:10058C0001003200FBFF37000622A800C5FF070060
:08059C000080FA0000000600D7
:100614000000FA000682BF007F0060000000E200D4
:1006240001003200FBFF37000642A8009FFF0700CD
:080634000080FA00000006003E
:1007A4000000FA000682BF007F0060000000E20043
:1007B40001003200FBFF37001622A80034FF0700B7
:0807C4000080FA0000000600AD
:1008D8000000FA001682BF007F0060000000E200FE
:1008E80001003200FBFF37001642A800E7FE0700B0
:0808F8000080FA000000060078
:100AB4000A0178008B007800618055008005780079
:100AC4000200E20009003200821F78008A9FBE0003
:100AD4001285FB00F0448000000001004F05BE00B9
:100AE4004F0178000420EC00F2FF370000000600FC
:101E7C008A1F78008B1F78008C1F780081FF070069
:101E8C00F18B20008048780011C0B3000104E10000
:101E9C0007003A002BC0B300BA872000BCFF070034
:101EAC002BC0B300AA872000B9FF07002E00370013
:101EBC00F08B20009040780040C0B300000CE10093
:101ECC0007003A002BC0B3007A862000B0FF070051
:101EDC002BC0B3006A852000ADFF0700220037003D
:101EEC00F08B20009040780080C0B300000CE10023
:101EFC001D003A00EB8B2000AA8B2000D5FE0700BA
:101F0C001BC0B3003A832000A1FF07000C8C2000FB
:101F1C00DA458000EB4580001AFF07002BC0B300A8
:101F2C000A8C20009AFF07001BC0B300CA81200056
:101F3C0097FF0700E08B20000B8C20001085FB0026
:101F4C00ECFE07001BC0B3000A8C200090FF0700BA
:101F5C002BC0B3008A8120008DFF07002BC0B3007B
:101F6C005A8520008AFF07004F067800CF057800BD
:081F7C004F057800000006008B
:101C90000200FA008A1F78008B1F78008C1F7800E2
:101CA00071458000010001000040E2000C0032009C
:101CB00002FD070001FD070000FD0700600047006E
:101CC0001CC0B300800578003AC0B30000FD0700D7
:101CD000F1C0B3006000470010C860000200370088
:101CE0000020EF00004798000E4090004F0678005B
:101CF000CF0578004F0578000080FA00000006004C
:10104C000060EF00C882AF000060EC0000000600FA
:10103C000060EF00D4A2AF000060EC0000000600DE
:10102C000060EF00D502AF000060EC00000006008D
:101298000060EF00E6C2AF000060EC00000006004E
:1012A8000060EF00E6E2AF000060EC00000006001E
:101288000060EF00E702AF000060EC00000006001D
:101268000060EF00D402AF000060EC000000060050
:101278000060EF00C382AF000060EC0000000600D1
:1012B8000060EF00E042AF000060EC0000000600B4
:1012F8000060EF00E062AF000060EC000000060054
:101308000060EF00E642AF000060EC00000006005D
:1012E8000060EF00E662AF000060EC00000006005E
:1012C8000060EF00C8A2AF000060EC00000006005C
:1012D8000060EF00D522AF000060EC0000000600BF
:101258000060EF00D5C2AF000060EC00000006009F
:10108C000060EF00E6C2AF000060EC00000006005C
:10109C000060EF00E6E2AF000060EC00000006002C
:10107C000060EF00E702AF000060EC00000006002B
:10105C000060EF00D422AF000060EC00000006003E
:10106C000060EF00C3A2AF000060EC0000000600BF
:1010AC000060EF00E042AF000060EC0000000600C2
:101238000060EF00E062AF000060EC000000060014
:101248000060EF00E642AF000060EC00000006001E
:101228000060EF00E662AF000060EC00000006001E
:1010BC00575320000E20ED00FEFF3A000000000008
:0410CC00000006001A
:1010D0006800FA008A1F78008D1F7800E000470042
:1010E0000009280067000900B058780020C3B30049
:1010F0000054E1000200360010C0B3004600370083
:1011000030C3B3000064E1000200360020C0B30029
:1011100041003700108A20001004E0001400320063
:10112000600047000A4878008C1F78008B1F780009
:101130009FFF0700E0004700008A20001DC0B300A9
:101140001C002000810578001045780069FE07002A
:10115000CF0578004F067800008A20001A20EF00A3
:101160000C86FB001045780053FF0700290037006C
:10117000600147008A80FB000004200000807000AE
:10118000004978008C1F78008B1F78001420EF0036
:101190006045800000000100CF0578004F06780010
:1011A0000C80FB00610140004103200081004700EA
:1011B000600047008C1F78008B1F780002067800C3
:1011C000810578000005780026FF07001AC0B300EB
:1011D0006045800000000100CF0578004F067800D0
:1011E0000620EF000C1CE1000A0031000380FB0028
:1011F000008145000380FB00E10040004003200027
:101200000000470001004000104978000660EC0033
:10121000F4FF37000020EF00CF0678004F0578007C
:081220000080FA000000060046
:100EB8000400FA008A1F780000002000100798003C
:100EC8000B0798000A80FB004100DD0061007000FC
:100ED8008C9FBE000045780031458000010001006C
:100EE8004F06BE0062014700E2004700920870000A
:100EF80061005600000678001800E2000D0032007C
:100F08008C9FBE008A9FBE001420EF0041458000E0
:100F1800010001004F05BE004F06BE008E00900084
:100F2800804878008E00900060004700618840008B
:100F3800EFFF37008C9FBE008A9FBE001A0020007A
:100F480041458000010001004F05BE004F06BE006C
:100F58008E00900080487800606CE10006003A003E
:100F6800504580008C9FBE008A9FBE000000010093
:100F78004F05BE004F06BE00616CE10006003A0056
:100F8800204580008C9FBE008A9FBE0000000100A3
:100F98004F05BE004F06BE001E0090004F057800AA
:080FA8000080FA0000000600C1
:10087C000000FA000682BF007F0060000000E2006A
:10088C0001003200FBFF37000662A80005FF0700DD
:10089C000682BF007F0060000000E2000100320011
:1008AC00FBFF37001400E2000200320006A2A80091
:1008BC000100370006A2A9000682A800F9FE070075
:0C08CC0000C2BF000080FA00000006001F
:100820000000FA001682BF007F0060000000E200B6
:1008300001003200FBFF37001662A80015FF070019
:100840001682BF007F0060000000E200010032005D
:10085000FBFF37001400E2000200320016A2A800DD
:100860000100370016A2A9001682A80009FF0700A0
:0C08700010C2BF000080FA00000006006B
:100E64000A0178008B0178008C007800610056003C
:100E7400000678000200E2000D003200829FBE00EE
:100E84008C1F78008A9FBE001285FB0011458000EC
:100E9400010001004F05BE004F0678004F01BE005F
:100EA400804978000620EC000420EC00EEFF3700B7
:040EB4000000060034
:101A60000400FA008C1F7800600047008A9FBE00C7
:101A70004CC0B300800578004AC0B30094FD070055
:101A80004F05BE0060024700620042001080FB006C
:101A90007F006000CF80DE00C809DD004801DE0065
:101AA000830171004801DD00610042001080FB00ED
:101AB0008000EB000000710081807100C809DD002A
:101AC0004801DE00830171004801DD001480FB0045
:101AD0008000EB000000710081807100008DBE006D
:101AE000630042009080FB00F00320000080600053
:101AF000804D78004F0678000080FA000000060054
:101B90000200FA000420EF006A10E10005003100A5
:101BA0008200460000C2B300804878000420EC00A8
:101BB000F9FF3700820046000020EF0080487800DF
:101BC000610251000400460000079800841F78005D
:101BD0008C1F78008A9FBE00A20020000300200016
:101BE0000A00BE000002EB0038FA07004F05BE00F5
:101BF0000203200003002000020140000E009000BC
:101C0000024878008A9FBE00A20020000300200046
:101C10000A00BE000002EB0042FB07004F05BE00B9
:101C20004F0678004F0278000005BE006000E1001A
:101C30006088E10001003A00020037000820ED0052
:0C1C4000E0FF37000080FA000000060002
:101B00000200FA000420EF006514E1000600310035
:101B10000280FB008080450000C2B300804878004E
:101B20000460EC00F8FF37000280FB008080450075
:101B30000020EF0080487800E14151000380FB0065
:101B40000080450000079800A20020001100090055
:101B50000285D80000032000808040000E00900025
:101B600001487800A2002000110009000285D80079
:101B7000000578006000E10001003A000200370033
:101B80000660ED00EDFF37000080FA00000006005F
:10212C000A8020000B002000910009000B1D780094
:04213C000000060099
:10214000018020000000280047000900B018780036
:042150000000060085
:020000040001F9
:1000000000540000687500006E6400006572000016
:100010002069000073200000696E00006974000010
:10002000696100006C6900007A65000064000000EE
:08003000206B00006D000000D0
:100038004469000073740000616E0000636500008D
:100048002065000073740000696D00006174000091
:10005800696F00006E2000003A2000000045000093
:100068006E65000072670000792000006F6600006E
:10007800207400006865000020730000696E0000AD
:10008800676C0000652000006C690000676800006C
:10009800746E0000696E0000672000003A200000BE
:0400A8000000000054
:1000AC00004900006E69000074690000616C00007A
:1000BC00697A0000696E0000672E00002E2E000089
:1000CC000044000069730000747500007262000047
:1000DC006572000020640000657400006563000018
:0800EC007465000064000000CF
:1000F400004E00006F69000073650000206C000072
:1001040065760000656C0000207400006F6F0000CD
:0C0114002068000069670000680000001F
:1001200000000000000000000000000000000000CF
:1001300000000000000000000000000000000000BF
:1001400000000000000000000000000000000000AF
:10015000000000000000000000000000000000009F
:10016000000000000000000000000000000000008F
:10017000000000000000000000000000000000007F
:08018000000000000000000077
:100188000000000000000000000000000000000067
:100198000000000000000000000000000000000057
:1001A8000000000000000000000000000000000047
:1001B8000000000000000000000000000000000037
:1001C8000000000000000000000000000000000027
:1001D8000000000000000000000000000000000017
:0801E80000000000000000000F
:1001F000A0090000AA0900008C090000960900006F
:10020000B4090000D2090000DC090000BE090000AA
:10021000C8090000CA0B0000DA0C0000A80C00009E
:10022000260800001E080000160800004C09000007
:100230005409000044090000340900003C09000092
:100240005C0900007C0900008409000074090000BA
:10025000E00200000A030000BE0200007A03000072
:040260003E04000058
:08026400A0860000010000006B
:0200000401F009
:20000000CF000000CF00000007000000A2000000850000007F000000E7000000C1000000ED
:00000001FF
